01942158783261791ARTUROPRAT                  0194215878                                   N1         ARTURO PRAT                                       1791                                                                        326       326       S/I                                                         0000000012BECO                          INA                                                                                                                                                                                                               PUNTA_ARENAS_99                                                                                                                                                                                         NORMALIZADO                   20170817                                                                                                    FUENTE: XYGO 20170817 NORM INA CAMBIO LLAVE                                                                                                                                                                                                                    MPARRA7                                                                                                                                                                                                                                                                                                
01350607711731000AVENIDAPiducoSur            0135060771                                   N1         AVENIDA Piduco Sur                                1000                                    304                                 173       173       S/I                                                         0000000007BECO                          INA                                                                                                                                                                                                               TALCA_99                                                                                                                                                                                                NORMALIZADO                   20170817                                                                                                    Torre M  Parque Las Araucarias FUENTE: XYGO 20170817 NORM INA CAMBIO LLAVE                                                                                                                                                                                     MPARRA7                                                                                                                                                                                                                                                                                                
00700321710161020AVENIDAARTUROPEREZCANTO     0070032171                                   N1         AVENIDA ARTURO PEREZ CANTO                        1020                                                                        016       016       S/I                                                         0000000002BECO                          INA                                                                                                                                                                                                               CHILE_99                                                                                                                                                                                                NORMALIZADO                   20170817                                                                                                    FUENTE: XYGO 20170817 NORM INA CAMBIO LLAVE                                                                                                                                                                                                                    MPARRA7                                                                                                                                                                                                                                                                                                
0150421497023810AVENIDA BATALLON DE ATACAMA  0150421497                                   N1         AVENIDA BATALLON DE ATACAMA                       810                                                                         023       023       S/I                                                         0000000003BECO                          INA                                                                                                                                                                                                               CHILE_99                                                                                                                                                                                                NORMALIZADO                   20170817                                                                                                    FUENTE: XYGO 20170817 NORM                                                                                                                                                                                                                                     MPARRA7                                                                                                                                                                                                                                                                                                
011274010413147AVENIDA EL PARQUE             0112740104                                   N1         AVENIDA EL PARQUE                                 47                                                                          131       131       S/I                                                         0000000006BECO                          INA                                                                                                                                                                                                               RANCAGUA_99                                                                                                                                                                                             NORMALIZADO                   20170817                                                                                                    FUENTE: XYGO 20170817 NORM                                                                                                                                                                                                                                     MPARRA7                                                                                                                                                                                                                                                                                                
00884071640928716AVENIDA GRECIA              0088407164                                   N1         AVENIDA GRECIA                                    8716                                          PENALOLEN                     092       080       S/I                                                         0000000013BECO                          INA                                                                                                                                                                                                               PENALOLEN_99                                                                                                                                                                                            NORMALIZADO                   20170817                                                                                                    SISTEMA     05/09/2015  FUENTE: BECO F FUENTE: XYGO 20170817 NORM                                                                                                                                                                                              MPARRA7                                                                                                                                                                                                                                                                                                
01610445390665824AVENIDA RODELILLO           0161044539                                   N1         AVENIDA RODELILLO                                 5824                                                                        066       066       S/I                                                         0000000005BECO                          INA                                                                                                                                                                                                               CHILE_99                                                                                                                                                                                                NORMALIZADO                   20170817                                                                                                    CERRO RODELILLO FUENTE: XYGO 20170817 NORM                                                                                                                                                                                                                     MPARRA7                                                                                                                                                                                                                                                                                                
018350617K0843340BOLIVIA                     018350617K                                   N1         BOLIVIA                                           3340                                                                        084       080       S/I                                                         0000000013BECO                          INA                                                                                                                                                                                                               CHILE_99                                                                                                                                                                                                NORMALIZADO                   20170817                                                                                                    FUENTE: XYGO 20170817 NORM                                                                                                                                                                                                                                     MPARRA7                                                                                                                                                                                                                                                                                                
00747954980812496CALLETACORA                 0074795498                                   N1         CALLE TACORA                                      2496                                          INDEPENDENCIA                 081       080       S/I                                                         0000000013BECO                          INA                                                                                                                                                                                                               INDEPENCIA_99                                                                                                                                                                                           NORMALIZADO                   20170817                                                                                                    FUENTE: INFOSITIO FUENTE: XYGO 20170817 NORM INA CAMBIO LLAVE                                                                                                                                                                                                  MPARRA7                                                                                                                                                                                                                                                                                                
02192766640051764DIEGOPORTALES               0219276664                                   N1         DIEGO PORTALES                                    1764                                          IQUIQUE                       005       001       S/I                                                         0000000015BECO                          INA                                                                                                                                                                                                               IQUIQUE_99                                                                                                                                                                                              NORMALIZADO                   20170817                                                                                                    SISTEMA     11/04/2015  FUENTE: BECO FUENTE: XYGO 20170817 NORM INA CAMBIO LLAVE                                                                                                                                                                               MPARRA7                                                                                                                                                                                                                                                                                                
01591207830012539DiegoPortales               0159120783                                   N1         Diego Portales                                    2539                                                                        001       001       S/I                                                         0000000015BECO                          INA                                                                                                                                                                                                               CHILE_99                                                                                                                                                                                                NORMALIZADO                   20170817                                                                                                    FUENTE: XYGO 20170817 NORM INA CAMBIO LLAVE                                                                                                                                                                                                                    MPARRA7                                                                                                                                                                                                                                                                                                
01549725442912029ELTRANQUE                   0154972544                                   N1         EL TRANQUE                                        2029                                                                        291       291       S/I                                                         0000000010BECO                          INA                                                                                                                                                                                                               PTO_MONTT_99                                                                                                                                                                                            NORMALIZADO                   20170817                                                                                                    JARDIN AUSTRAL III FUENTE: XYGO 20170817 NORM INA CAMBIO LLAVE                                                                                                                                                                                                 MPARRA7                                                                                                                                                                                                                                                                                                
023014320K080740ELEUTERIO RAMIREZ            023014320K                                   N1         ELEUTERIO RAMIREZ                                 740                                           SANTIAGO                      080       080       S/I                                                         0000000013BECO                          INA                                                                                                                                                                                                               SANTIAGO_99                                                                                                                                                                                             NORMALIZADO                   20170817                                                                                                    SISTEMA     15/10/2016  FUENTE: BECO  D. FUENTE: XYGO 20170817 NORM                                                                                                                                                                                            MPARRA7                                                                                                                                                                                                                                                                                                
01725969400161670GUACOLDA                    0172596940                                   N1         GUACOLDA                                          1670                                                                        016       016       S/I                                                         0000000002BECO                          INA                                                                                                                                                                                                               CHILE_99                                                                                                                                                                                                NORMALIZADO                   20170817                                                                                                    FUENTE: XYGO 20170817 NORM                                                                                                                                                                                                                                     MPARRA7                                                                                                                                                                                                                                                                                                
02379116950132157HERNAN CORTES               0237911695                                   N1         HERNAN CORTES                                     2157                                                                        013       013       S/I                                                         0000000002BECO                          INA                                                                                                                                                                                                               CHILE_99                                                                                                                                                                                                NORMALIZADO                   20170817                                                                                                    FUENTE: XYGO 20170817 NORM                                                                                                                                                                                                                                     MPARRA7                                                                                                                                                                                                                                                                                                
01617474831153654JUAN DE DIOS MALEBRAN       0161747483                                   N1         JUAN DE DIOS MALEBRAN                             3654                                    70    PUENTE ALTO                   115       115       S/I                                                         0000000013BECO                          INA                                                                                                                                                                                                               PTE_ALTO_99                                                                                                                                                                                             NORMALIZADO                   20170817                                                                                                    JARDINES DEL VALLE CONDOMINIO UNO FUENTE: XYGO 20170817 NORM                                                                                                                                                                                                   MPARRA7                                                                                                                                                                                                                                                                                                
0142135027234973LAS MERCEDES                 0142135027                                   N1         LAS MERCEDES                                      973                                           CORONEL                       234       234       S/I                                                         0000000008BECO                          INA                                                                                                                                                                                                               CORONEL_99                                                                                                                                                                                              NORMALIZADO                   20170817                                                                                                    SISTEMA     03/12/2011  FUENTE: BECO FUENTE: XYGO 20170817 NORM                                                                                                                                                                                                MPARRA7                                                                                                                                                                                                                                                                                                
0173685688001120LUISFERRADA                  0173685688                                   N1         LUIS FERRADA                                      120                                           ARICA                         001       001       S/I                                                         0000000015BECO                          INA                                                                                                                                                                                                               ARICA_99                                                                                                                                                                                                NORMALIZADO                   20170817                                                                                                    FUENTE: XYGO 20170817 NORM INA CAMBIO LLAVE                                                                                                                                                                                                                    MPARRA7                                                                                                                                                                                                                                                                                                
01709361910291689MEMBRILLAR                  0170936191                                   N1         MEMBRILLAR                                        1689                                          LA SERENA                     029       029       S/I                                                         0000000004BECO                          INA                                                                                                                                                                                                               LA_SERENA_99                                                                                                                                                                                            NORMALIZADO                   20170817                                                                                                    SISTEMA     08/11/2016  FUENTE: BECO FUENTE: XYGO 20170817 NORM                                                                                                                                                                                                MPARRA7                                                                                                                                                                                                                                                                                                
01686232081151991NONATOCOO                   0168623208                                   N1         NONATO COO                                        1991                                          PUENTE ALTO                   115       115       S/I                                                         0000000013BECO                          INA                                                                                                                                                                                                               PTE_ALTO_99                                                                                                                                                                                             NORMALIZADO                   20170817                                                                                                    SISTEMA     12/11/2016  FUENTE: BECO FUENTE: XYGO 20170817 NORM INA CAMBIO LLAVE                                                                                                                                                                               MPARRA7                                                                                                                                                                                                                                                                                                
016820437K0591244PAIHUANO                    016820437K                                   N1         PAIHUANO                                          1244                                                                        059       059       S/I                                                         0000000005BECO                          INA                                                                                                                                                                                                               CHILE_99                                                                                                                                                                                                NORMALIZADO                   20170817                                                                                                    FUENTE: XYGO 20170817 NORM INA CAMBIO LLAVE                                                                                                                                                                                                                    MPARRA7                                                                                                                                                                                                                                                                                                
01504565330226246PASAJE ANGEL ESTEBAN GUERRA 0150456533                                   N1         PASAJE ANGEL ESTEBAN GUERRA                       6246                                                                        022       022       S/I                                                         0000000003BECO                          INA                                                                                                                                                                                                               CHILE_99                                                                                                                                                                                                NORMALIZADO                   20170817                                                                                                    VILLA EL LLANO II FUENTE: XYGO 20170817 NORM                                                                                                                                                                                                                   MPARRA7                                                                                                                                                                                                                                                                                                
01858032010133555PASAJE ANTILLANCA           0185803201                                   N1         PASAJE ANTILLANCA                                 3555                                                                        013       013       S/I                                                         0000000002BECO                          INA                                                                                                                                                                                                               CHILE_99                                                                                                                                                                                                NORMALIZADO                   20170817                                                                                                    FUENTE: XYGO 20170817 NORM                                                                                                                                                                                                                                     MPARRA7                                                                                                                                                                                                                                                                                                
017277327303111PASAJE B                      0172773273                                   N2         PASAJE B                                          11                                            COQUIMBO                      031       031       S/I                                                         0000000004BECO                          INA                                                                                                                                                                                                               COQUIMBO_99                                                                                                                                                                                             NORMALIZADO                   20170817                                                                                                    FUENTE: XYGO 20170817 NORM                                                                                                                                                                                                                                     MPARRA7                                                                                                                                                                                                                                                                                                
015786269310575PASAJE CHAMPOLLION            0157862693                                   N1         PASAJE CHAMPOLLION                                75                                            MAIPU                         105       080       S/I                                                         0000000013BECO                          INA                                                                                                                                                                                                               MAIPU_99                                                                                                                                                                                                NORMALIZADO                   20170817                                                                                                    FUENTE: XYGO 20170817 NORM                                                                                                                                                                                                                                     MPARRA7                                                                                                                                                                                                                                                                                                
018365323709611059PASAJE SAN LUCIANO         0183653237                                   N1         PASAJE SAN LUCIANO                                11059                                                                       096       080       S/I                                                         0000000013BECO                          INA                                                                                                                                                                                                               CHILE_99                                                                                                                                                                                                NORMALIZADO                   20170817                                                                                                    FUENTE: XYGO 20170817 NORM                                                                                                                                                                                                                                     MPARRA7                                                                                                                                                                                                                                                                                                
022464387K0133561RAMIREZ                     022464387K                                   N1         RAMIREZ                                           3561                                                                        013       013       S/I                                                         0000000002BECO                          INA                                                                                                                                                                                                               CHILE_99                                                                                                                                                                                                NORMALIZADO                   20170817                                                                                                    FUENTE: XYGO 20170817 NORM INA CAMBIO LLAVE                                                                                                                                                                                                                    MPARRA7                                                                                                                                                                                                                                                                                                
02379074930131943VARGAS1943                  0237907493                                   N1         VARGAS 1943                                       1943                                                                        013       013       S/I                                                         0000000002BECO                          INA                                                                                                                                                                                                               CHILE_99                                                                                                                                                                                                NORMALIZADO                   20170817                                                                                                    FUENTE: XYGO 20170817 NORM INA CAMBIO LLAVE                                                                                                                                                                                                                    MPARRA7                                                                                                                                                                                                                                                                                                
014147636K0937320VICU¥AMACKENNAORIENTE      014147636K                                   N1         VICU¥A MACKENNA ORIENTE                          7320                                    1813                                093       080       S/I                                                         0000000013BECO                          INA                                                                                                                                                                                                               CHILE_99                                                                                                                                                                                                NORMALIZADO                   20170817                                                                                                    FUENTE: XYGO 20170817 NORM INA CAMBIO LLAVE                                                                                                                                                                                                                    MPARRA7                                                                                                                                                                                                                                                                                                
0102715675075366SANTIS                       0102715675                                   N1         SANTIS                                            366                                           SAN ANTONIO                   075       074       S/I                                                         0000000005BECO                          INA                                                                                                                                                                                                               SAN_ANTONIO_99                                                                                                                                                                                          NORMALIZADO                   20170817                                                                                                    SISTEMA     07/11/2015  FUENTE: BECO FUENTE: XYGO 20170817 NORM INA CAMBIO LLAVE                                                                                                                                                                               MPARRA7                                                                                                                                                                                                                                                                                                
0103181151201146DOLORES                      0103181151                                   N2         DOLORES                                           146                                           YUNGAY                        201       201       S/I                                                         0000000008BECO                          INA                                                                                                                                                                                                               YUNGAY_99                                                                                                                                                                                               NORMALIZADO                   20170817                                                                                                    SISTEMA     29/03/2014  FUENTE: BECO FUENTE: XYGO 20170817 NORM INA CAMBIO LLAVE                                                                                                                                                                               MPARRA7                                                                                                                                                                                                                                                                                                
0103182972022770PASAJELLANOSDEQUILIN         0103182972                                   N1         PASAJE LLANOS DE QUILIN                           770                                           COPIAPO                       022       022       S/I                                                         0000000003BECO                          INA                                                                                                                                                                                                               COPIAPO_99                                                                                                                                                                                              NORMALIZADO                   20170817                                                                                                    SISTEMA     14/03/2015  FUENTE: BECO  D. FUENTE: XYGO 20170817 NORM INA CAMBIO LLAVE                                                                                                                                                                           MPARRA7                                                                                                                                                                                                                                                                                                
0103459400344783ARAGON                       0103459400                                   N1         ARAGON                                            783                                           HUALPEN                       344       226       S/I                                                         0000000008BECO                          INA       -367941726                                                                                          -7311444145                                                                                         HUALPEN_99                                                                                                                                                                                              NORMALIZADO                   20170817                                                                                                    JARDINES DE LA FLORESTA  SISTEMA     15/ FUENTE: XYGO 20170817 NORM INA CAMBIO LLAVE                                                                                                                                                                           MPARRA7                                                                                                                                                                                                                                                                                                
0103514770341733CALLEDANIELBELMAR            0103514770                                   N1         CALLE  DANIEL  BELMAR                             733                                           SAN PEDRO DE LA PAZ           341       226       S/I                                                         0000000008BECO                          INA                                                                                                                                                                                                               SN_PEDRO_PAZ_99                                                                                                                                                                                         NORMALIZADO                   20170817                                                                                                    SISTEMA     27/06/2015  FUENTE: BECO FUENTE: XYGO 20170817 NORM INA CAMBIO LLAVE                                                                                                                                                                               MPARRA7                                                                                                                                                                                                                                                                                                
010384604827546RINIHUE                       0103846048                                   N1         RINIHUE                                           46                                            LOS LAGOS                     275       275       S/I                                                         0000000014BECO                          INA                                                                                                                                                                                                               LOS_LAGOS_99                                                                                                                                                                                            NORMALIZADO                   20170817                                                                                                    SECTOR ESTACION FUENTE: XYGO 20170817 NORM INA CAMBIO LLAVE                                                                                                                                                                                                    MPARRA7                                                                                                                                                                                                                                                                                                
01042027481801457OHIGGINS                    0104202748                                   N1         O HIGGINS                                         1457                                          CONSTITUCION                  180       180       S/I                                                         0000000007BECO                          INA                                                                                                                                                                                                               CONSTITUCION_99                                                                                                                                                                                         NORMALIZADO                   20170817                                                                                                    RMUNZM50    14/05/2012  FUENTE: BECO FUENTE: XYGO 20170817 NORM INA CAMBIO LLAVE                                                                                                                                                                               MPARRA7                                                                                                                                                                                                                                                                                                
01044091640164684PASAJEERCILLA               0104409164                                   N1         PASAJE ERCILLA                                    4684                                          ANTOFAGASTA                   016       016       S/I                                                         0000000002BECO                          INA                                                                                                                                                                                                               ANTOFAGASTA_99                                                                                                                                                                                          NORMALIZADO                   20170817                                                                                                    SISTEMA     05/03/2016  FUENTE: BECO FUENTE: XYGO 20170817 NORM INA CAMBIO LLAVE                                                                                                                                                                               MPARRA7                                                                                                                                                                                                                                                                                                
01048563730052995BLATIRANA                   0104856373                                   N1         LA TIRANA                                         2995B                                         IQUIQUE                       005       001       S/I                                                         0000000015BECO                          INA                                                                                                                                                                                                               IQUIQUE_99                                                                                                                                                                                              NORMALIZADO                   20170817                                                                                                    SISTEMA     07/11/2015  FUENTE: BECO F FUENTE: XYGO 20170817 NORM INA CAMBIO LLAVE                                                                                                                                                                             MPARRA7                                                                                                                                                                                                                                                                                                
01050673801088385PASAJEMARDELNORTE           0105067380                                   N1         PASAJE MAR DEL NORTE                              8385                                          PUDAHUEL                      108       080       S/I                                                         0000000013BECO                          INA                                                                                                                                                                                                               PUDAHUEL_99                                                                                                                                                                                             NORMALIZADO                   20170817                                                                                                    SISTEMA     12/02/2013  FUENTE: BECO  D. FUENTE: XYGO 20170817 NORM INA CAMBIO LLAVE                                                                                                                                                                           MPARRA7                                                                                                                                                                                                                                                                                                
01050687270926041LOSCEREZOS                  0105068727                                   N1         LOS CEREZOS                                       6041                                          PENALOLEN                     092       080       S/I                                                         0000000013BECO                          INA                                                                                                                                                                                                               PENALOLEN_99                                                                                                                                                                                            NORMALIZADO                   20170817                                                                                                    UCORNEJO    24/01/2014  FUENTE: BECO  D. FUENTE: XYGO 20170817 NORM INA CAMBIO LLAVE                                                                                                                                                                           MPARRA7                                                                                                                                                                                                                                                                                                
010511415K07546042876                        010511415K                                   N1         42876                                             460                                           SAN ANTONIO                   075       074       S/I                                                         0000000005BECO                          INA                                                                                                                                                                                                               SAN_ANTONIO_99                                                                                                                                                                                          NORMALIZADO                   20170817                                                                                                    FUENTE: XYGO 20170817 NORM INA CAMBIO LLAVE                                                                                                                                                                                                                    MPARRA7                                                                                                                                                                                                                                                                                                
0105223404272868CAMILOHENRIQUEZ              0105223404                                   N1         CAMILO HENRIQUEZ                                  868                                           VALDIVIA                      272       272       S/I                                                         0000000014BECO                          INA                                                                                                                                                                                                               VALDIVIA_99                                                                                                                                                                                             NORMALIZADO                   20170817                                                                                                    SISTEMA     30/01/2014  FUENTE: BECO FUENTE: XYGO 20170817 NORM INA CAMBIO LLAVE                                                                                                                                                                               MPARRA7                                                                                                                                                                                                                                                                                                
01114771913443812ESTAMBUL                    0111477191                                   N1         ESTAMBUL                                          3812                                          HUALPEN                       344       226       S/I                                                         0000000008BECO                          INA                                                                                                                                                                                                               HUALPEN_99                                                                                                                                                                                              NORMALIZADO                   20170817                                                                                                    SISTEMA     14/06/2014  FUENTE: BECO  D. FUENTE: XYGO 20170817 NORM INA CAMBIO LLAVE                                                                                                                                                                           MPARRA7                                                                                                                                                                                                                                                                                                
01118346010168849LORENZOARENAS               0111834601                                   N1         LORENZO ARENAS                                    8849                                          ANTOFAGASTA                   016       016       S/I                                                         0000000002BECO                          INA                                                                                                                                                                                                               ANTOFAGASTA_99                                                                                                                                                                                          NORMALIZADO                   20170817                                                                                                    JUAN PABLO II FUENTE: XYGO 20170817 NORM INA CAMBIO LLAVE                                                                                                                                                                                                      MPARRA7                                                                                                                                                                                                                                                                                                
01121164433442289GRANBRETANA                 0112116443                                   N1         GRAN BRETANA                                      2289                                          HUALPEN                       344       226       S/I                                                         0000000008BECO                          INA                                                                                                                                                                                                               HUALPEN_99                                                                                                                                                                                              NORMALIZADO                   20170817                                                                                                    MFUENT51    30/09/2014  FUENTE: BECO FUENTE: XYGO 20170817 NORM INA CAMBIO LLAVE                                                                                                                                                                               MPARRA7                                                                                                                                                                                                                                                                                                
0112354646080BANDERA60                       0112354646                                   N1         BANDERA 60                                                                                      SANTIAGO                      080       080       S/I                                                         0000000013BECO                          INA                                                                                                                                                                                                               SANTIAGO_99                                                                                                                                                                                             NORMALIZADO                   20170817                                                                                                    FUENTE: XYGO 20170817 NORM INA CAMBIO LLAVE                                                                                                                                                                                                                    MPARRA7                                                                                                                                                                                                                                                                                                
01132224842341030PASAJERIOCLARO              0113222484                                   N1         PASAJE RIO CLARO                                  1030                                          CORONEL                       234       234       S/I                                                         0000000008BECO                          INA                                                                                                                                                                                                               CORONEL_99                                                                                                                                                                                              NORMALIZADO                   20170817                                                                                                    MVALDO50    05/04/2014  FUENTE: BECO FUENTE: XYGO 20170817 NORM INA CAMBIO LLAVE                                                                                                                                                                               MPARRA7                                                                                                                                                                                                                                                                                                
011351437K3448983ARTEAGAALEMPARTE            011351437K                                   N2         ARTEAGA ALEMPARTE                                 8983                                          HUALPEN                       344       226       S/I                                                         0000000008BECO                          INA                                                                                                                                                                                                               HUALPEN_99                                                                                                                                                                                              NORMALIZADO                   20170817                                                                                                    SISTEMA     15/09/2016  FUENTE: BECO FUENTE: XYGO 20170817 NORM INA CAMBIO LLAVE                                                                                                                                                                               MPARRA7                                                                                                                                                                                                                                                                                                
01137902020225144NUEVAPRAT                   0113790202                                   N1         NUEVA PRAT                                        5144                                          COPIAPO                       022       022       S/I                                                         0000000003BECO                          INA                                                                                                                                                                                                               COPIAPO_99                                                                                                                                                                                              NORMALIZADO                   20170817                                                                                                    SISTEMA     19/08/2016  FUENTE: BECO FUENTE: XYGO 20170817 NORM INA CAMBIO LLAVE                                                                                                                                                                               MPARRA7                                                                                                                                                                                                                                                                                                
0114036498103SNCondedeMaule4364              0114036498                                   N1         Conde de Maule   4364                             SN                                            ESTACION CENTRAL              103       080       S/I                                                         0000000013BECO                          INA                                                                                                                                                                                                               EST_CENTRAL_99                                                                                                                                                                                          NORMALIZADO                   20170817                                                                                                    SISTEMA     15/02/2017  FUENTE: BECO  D. FUENTE: XYGO 20170817 NORM INA CAMBIO LLAVE                                                                                                                                                                           MPARRA7                                                                                                                                                                                                                                                                                                
01144152272286CEMENTERIO                     0114415227                                   N1         CEMENTERIO                                        6                                             PENCO                         228       228       S/I                                                         0000000008BECO                          INA                                                                                                                                                                                                               PENCO_99                                                                                                                                                                                                NORMALIZADO                   20170817                                                                                                    SISTEMA     11/12/2014  FUENTE: BECO FUENTE: XYGO 20170817 NORM INA CAMBIO LLAVE                                                                                                                                                                               MPARRA7                                                                                                                                                                                                                                                                                                
011901512K33763PASAJEPATRICIOALWIN           011901512K                                   N1         PASAJE PATRICIO ALWIN                             63                                                                          337       337       S/I                                                         0000000008BECO                          INA                                                                                                                                                                                                               CHIGUAYANTE_99                                                                                                                                                                                          NORMALIZADO                   20170817                                                                                                    LOS PRESIDENTES CHILE FUENTE: XYGO 20170817 NORM INA CAMBIO LLAVE                                                                                                                                                                                              MPARRA7                                                                                                                                                                                                                                                                                                
0119270650080750MATURANA                     0119270650                                   N1         MATURANA                                          750                                           SANTIAGO                      080       080       S/I                                                         0000000013BECO                          INA                                                                                                                                                                                                               SANTIAGO_99                                                                                                                                                                                             NORMALIZADO                   20170817                                                                                                    SISTEMA     19/08/2016  FUENTE: BECO  D. FUENTE: XYGO 20170817 NORM INA CAMBIO LLAVE                                                                                                                                                                           MPARRA7                                                                                                                                                                                                                                                                                                
0119491258337245SANCARLOS                    0119491258                                   N1         SAN CARLOS                                        245                                           CHIGUAYANTE                   337       337       S/I                                                         0000000008BECO                          INA                                                                                                                                                                                                               CHIGUAYANTE_99                                                                                                                                                                                          NORMALIZADO                   20170817                                                                                                    SISTEMA     16/09/2016  FUENTE: BECO  D. FUENTE: XYGO 20170817 NORM INA CAMBIO LLAVE                                                                                                                                                                           MPARRA7                                                                                                                                                                                                                                                                                                
0119590337228306PISCIS                       0119590337                                   N1         PISCIS                                            306                                           PENCO                         228       228       S/I                                                         0000000008BECO                          INA                                                                                                                                                                                                               PENCO_99                                                                                                                                                                                                NORMALIZADO                   20170817                                                                                                    SISTEMA     02/04/2011  FUENTE: BECO FUENTE: XYGO 20170817 NORM INA CAMBIO LLAVE                                                                                                                                                                               MPARRA7                                                                                                                                                                                                                                                                                                
01198582671051852PASAJEARTUROGODOY           0119858267                                   N1         PASAJE ARTURO GODOY                               1852                                          MAIPU                         105       080       S/I                                                         0000000013BECO                          INA                                                                                                                                                                                                               MAIPU_99                                                                                                                                                                                                NORMALIZADO                   20170817                                                                                                    MGUTIE51    10/02/2015  FUENTE: BECO  D. FUENTE: XYGO 20170817 NORM INA CAMBIO LLAVE                                                                                                                                                                           MPARRA7                                                                                                                                                                                                                                                                                                
0120294504173150723NORTE                     0120294504                                   N1         23 NORTE                                          1507                                          TALCA                         173       173       S/I                                                         0000000007BECO                          INA                                                                                                                                                                                                               TALCA_99                                                                                                                                                                                                NORMALIZADO                   20170817                                                                                                    HPFEIF50    06/04/2015  FUENTE: BECO  D. FUENTE: XYGO 20170817 NORM INA CAMBIO LLAVE                                                                                                                                                                           MPARRA7                                                                                                                                                                                                                                                                                                
0120410962266250MANUELRODRIGUEZ              0120410962                                   N1         MANUEL RODRIGUEZ                                  250                                           TOLTEN                        266       266       S/I                                                         0000000009BECO                          INA                                                                                                                                                                                                               TOLTEN_99                                                                                                                                                                                               NORMALIZADO                   20170817                                                                                                    FUENTE: XYGO 20170817 NORM INA CAMBIO LLAVE                                                                                                                                                                                                                    MPARRA7                                                                                                                                                                                                                                                                                                
01205171983448024CHAITEN                     0120517198                                   N1         CHAITEN                                           8024                                          HUALPEN                       344       226       S/I                                                         0000000008BECO                          INA                                                                                                                                                                                                               HUALPEN_99                                                                                                                                                                                              NORMALIZADO                   20170817                                                                                                    XJARA1      19/02/2014  FUENTE: BECO  D. FUENTE: XYGO 20170817 NORM INA CAMBIO LLAVE                                                                                                                                                                           MPARRA7                                                                                                                                                                                                                                                                                                
0120860852229427LOSCEREZOS                   0120860852                                   N1         LOS CEREZOS                                       427                                           TOME                          229       229       S/I                                                         0000000008BECO                          INA                                                                                                                                                                                                               TOME_99                                                                                                                                                                                                 NORMALIZADO                   20170817                                                                                                    SISTEMA     12/06/2004  FUENTE: BECO  D. FUENTE: XYGO 20170817 NORM INA CAMBIO LLAVE                                                                                                                                                                           MPARRA7                                                                                                                                                                                                                                                                                                
0121036711118157ALONSOCORONAS                0121036711                                   N1         ALONSO CORONAS                                    157                                           SAN BERNARDO                  118       118       S/I                                                         0000000013BECO                          INA                                                                                                                                                                                                               SAN_BERNARDO_99                                                                                                                                                                                         NORMALIZADO                   20170817                                                                                                    SISTEMA     14/02/2013  FUENTE: BECO  D. FUENTE: XYGO 20170817 NORM INA CAMBIO LLAVE                                                                                                                                                                           MPARRA7                                                                                                                                                                                                                                                                                                
0121196980341142AVENIDALASTORRES             0121196980                                   N1         AVENIDA LAS TORRES                                142                                           SAN PEDRO DE LA PAZ           341       226       S/I                                                         0000000008BECO                          INA                                                                                                                                                                                                               SN_PEDRO_PAZ_99                                                                                                                                                                                         NORMALIZADO                   20170817                                                                                                    FUENTE: XYGO 20170817 NORM INA CAMBIO LLAVE                                                                                                                                                                                                                    MPARRA7                                                                                                                                                                                                                                                                                                
01214697660133064FRANKFURT                   0121469766                                   N1         FRANKFURT                                         3064                                          CALAMA                        013       013       S/I                                                         0000000002BECO                          INA                                                                                                                                                                                                               CALAMA_99                                                                                                                                                                                               NORMALIZADO                   20170817                                                                                                    SISTEMA     18/06/2016  FUENTE: BECO  D. FUENTE: XYGO 20170817 NORM INA CAMBIO LLAVE                                                                                                                                                                           MPARRA7                                                                                                                                                                                                                                                                                                
0125530893227178PASAJEDARIOBASTIAS           0125530893                                   N1         PASAJE DARIO BASTIAS                              178                                           TALCAHUANO                    227       227       S/I                                                         0000000008BECO                          INA                                                                                                                                                                                                               TALCAHUANO_99                                                                                                                                                                                           NORMALIZADO                   20170817                                                                                                    MRODRIG9    24/01/2014  FUENTE: BECO  PO FUENTE: XYGO 20170817 NORM INA CAMBIO LLAVE                                                                                                                                                                           MPARRA7                                                                                                                                                                                                                                                                                                
01256810690211019CHILE                       0125681069                                   N1         CHILE                                             1019                                          DIEGO DE ALMAGRO              021       021       S/I                                                         0000000003BECO                          INA                                                                                                                                                                                                               D_DE_ALMAGRO_99                                                                                                                                                                                         NORMALIZADO                   20170817                                                                                                    SISTEMA     10/10/2015  FUENTE: BECO  D. FUENTE: XYGO 20170817 NORM INA CAMBIO LLAVE                                                                                                                                                                           MPARRA7                                                                                                                                                                                                                                                                                                
01258609740825780CAMBERRA                    0125860974                                   N1         CAMBERRA                                          5780                                          CONCHALI                      082       080       S/I                                                         0000000013BECO                          INA                                                                                                                                                                                                               CONCHALI_99                                                                                                                                                                                             NORMALIZADO                   20170817                                                                                                    SISTEMA     06/11/2014  FUENTE: BECO FUENTE: XYGO 20170817 NORM INA CAMBIO LLAVE                                                                                                                                                                               MPARRA7                                                                                                                                                                                                                                                                                                
0125875017080BANDERA60                       0125875017                                   N1         BANDERA 60                                                                                      SANTIAGO                      080       080       S/I                                                         0000000013BECO                          INA                                                                                                                                                                                                               SANTIAGO_99                                                                                                                                                                                             NORMALIZADO                   20170817                                                                                                    SISTEMA     27/11/2013  FUENTE: BECO FUENTE: XYGO 20170817 NORM INA CAMBIO LLAVE                                                                                                                                                                               MPARRA7                                                                                                                                                                                                                                                                                                
01259082170800BANDERA60                      0125908217                                   N1         BANDERA 60                                        0                                             SANTIAGO                      080       080       S/I                                                         0000000013BECO                          INA                                                                                                                                                                                                               SANTIAGO_99                                                                                                                                                                                             NORMALIZADO                   20170817                                                                                                    SISTEMA     13/01/2011  FUENTE: BECO FUENTE: XYGO 20170817 NORM INA CAMBIO LLAVE                                                                                                                                                                               MPARRA7                                                                                                                                                                                                                                                                                                
0126090854089140LOENCALADA                   0126090854                                   N1         LO ENCALADA                                       140                                           NUNOA                         089       080       S/I                                                         0000000013BECO                          INA                                                                                                                                                                                                               NUNOA_99                                                                                                                                                                                                NORMALIZADO                   20170817                                                                                                    SISTEMA     13/07/2013  FUENTE: BECO  D. FUENTE: XYGO 20170817 NORM INA CAMBIO LLAVE                                                                                                                                                                           MPARRA7                                                                                                                                                                                                                                                                                                
