00477101970886776DOCTORA ELOISA DIAZ         0047710197                                   N1         DOCTORA ELOISA DIAZ                               6776                                          LAS CONDES                    088       080       S/I                                                         0000000013BECO                          INA                                                                                                                                                                                                               LAS_CONDES_99                                                                                                                                                                                           NORMALIZADO                   20170817                                                                                                    SISTEMA     11/01/2013  FUENTE: BECO FUENTE: XYGO 20170817 NORM                                                                                                                                                                                                MPARRA7                                                                                                                                                                                                                                                                                                
00509761653472893LOSMANGOS                   0050976165                                   N1         LOS MANGOS                                        2893                                          ALTO HOSPICIO                 347       347       S/I                                                         0000000001BECO                          INA                                                                                                                                                                                                               ALT_HOSPICIO_99                                                                                                                                                                                         NORMALIZADO                   20170817                                                                                                    SISTEMA     17/08/2013  FUENTE: BECO  D. FUENTE: XYGO 20170817 NORM INA CAMBIO LLAVE                                                                                                                                                                           MPARRA7                                                                                                                                                                                                                                                                                                
0057776188227164EL TAMARUGO                  0057776188                                   N1         EL TAMARUGO                                       164                                           TALCAHUANO                    227       227       S/I                                                         0000000008BECO                          INA                                                                                                                                                                                                               TALCAHUANO_99                                                                                                                                                                                           NORMALIZADO                   20170817                                                                                                    MPINTO11    21/03/2014  FUENTE: BECO  D. FUENTE: XYGO 20170817 NORM                                                                                                                                                                                            MPARRA7                                                                                                                                                                                                                                                                                                
0058501565193882BARROS ARANA                 0058501565                                   N2         BARROS ARANA                                      882                                           CHILLAN                       193       193       S/I                                                         0000000008BECO                          INA                                                                                                                                                                                                               CHILLAN_99                                                                                                                                                                                              NORMALIZADO                   20170817                                                                                                    SISTEMA     06/09/2011  FUENTE: BECO  D. FUENTE: XYGO 20170817 NORM                                                                                                                                                                                            MPARRA7                                                                                                                                                                                                                                                                                                
00599773340221376AVENIDA LOS LOROS           0059977334                                   N1         AVENIDA LOS LOROS                                 1376                                          COPIAPO                       022       022       S/I                                                         0000000003BECO                          INA                                                                                                                                                                                                               COPIAPO_99                                                                                                                                                                                              NORMALIZADO                   20170817                                                                                                    JALVAR50    30/05/2008  FUENTE: BECO  D. FUENTE: XYGO 20170817 NORM                                                                                                                                                                                            MPARRA7                                                                                                                                                                                                                                                                                                
006055449806719AVENIDA PRIMERA               0060554498                                   N1         AVENIDA PRIMERA                                   19                                            VINA DEL MAR                  067       067       S/I                                                         0000000005BECO                          INA                                                                                                                                                                                                               VINA_DEL_MAR_99                                                                                                                                                                                         NORMALIZADO                   20170817                                                                                                    ECONTU50    02/08/2013  FUENTE: BECO  D. FUENTE: XYGO 20170817 NORM                                                                                                                                                                                            MPARRA7                                                                                                                                                                                                                                                                                                
0061212043314791MURTA                        0061212043                                   N1         MURTA                                             791                                           COYHAIQUE                     314       314       S/I                                                         0000000011BECO                          INA                                                                                                                                                                                                               COIHAIQUE_99                                                                                                                                                                                            NORMALIZADO                   20170817                                                                                                    LOS ARRAYANES FUENTE: XYGO 20170817 NORM                                                                                                                                                                                                                       MPARRA7                                                                                                                                                                                                                                                                                                
006288925K023995SALOMONGOMEZ                 006288925K                                   N1         SALOMON GOMEZ                                     995                                           CALDERA                       023       023       S/I                                                         0000000003BECO                          INA                                                                                                                                                                                                               CALDERA_99                                                                                                                                                                                              NORMALIZADO                   20170817                                                                                                    SISTEMA     26/05/2012  FUENTE: BECO FUENTE: XYGO 20170817 NORM INA CAMBIO LLAVE                                                                                                                                                                               MPARRA7                                                                                                                                                                                                                                                                                                
0065046695307169CIRIACO ALVAREZ              0065046695                                   N1         CIRIACO ALVAREZ                                   169                                           CHONCHI                       307       307       S/I                                                         0000000010BECO                          INA                                                                                                                                                                                                               CHONCHI_99                                                                                                                                                                                              NORMALIZADO                   20170817                                                                                                    SISTEMA     11/06/2013  FUENTE: BECO FUENTE: XYGO 20170817 NORM                                                                                                                                                                                                MPARRA7                                                                                                                                                                                                                                                                                                
00658028720293704PASAJE MAR CARIBE           0065802872                                   N2         PASAJE MAR CARIBE                                 3704                                          LA SERENA                     029       029       S/I                                                         0000000004BECO                          INA                                                                                                                                                                                                               LA_SERENA_99                                                                                                                                                                                            NORMALIZADO                   20170817                                                                                                    SISTEMA     17/08/2011  FUENTE: BECO  D. FUENTE: XYGO 20170817 NORM                                                                                                                                                                                            MPARRA7                                                                                                                                                                                                                                                                                                
00677570840251138CARMEN                      0067757084                                   N1         CARMEN                                            1138                                          VALLENAR                      025       025       S/I                                                         0000000003BECO                          INA                                                                                                                                                                                                               VALLENAR_99                                                                                                                                                                                             NORMALIZADO                   20170817                                                                                                    ECONTU50    15/05/2012  FUENTE: BECO  D. FUENTE: XYGO 20170817 NORM                                                                                                                                                                                            MPARRA7                                                                                                                                                                                                                                                                                                
0067772350314791LIBERTAD                     0067772350                                   N1         LIBERTAD                                          791                                           COYHAIQUE                     314       314       S/I                                                         0000000011BECO                          INA                                                                                                                                                                                                               COIHAIQUE_99                                                                                                                                                                                            NORMALIZADO                   20170817                                                                                                    SISTEMA     01/10/2009  FUENTE: BECO  D. FUENTE: XYGO 20170817 NORM                                                                                                                                                                                            MPARRA7                                                                                                                                                                                                                                                                                                
0068245079101384910NORTE                     0068245079                                   N1         10 NORTE                                          3849                                          PEDRO AGUIRRE CERDA           101       080       S/I                                                         0000000013BECO                          INA                                                                                                                                                                                                               P_A_CERDA_99                                                                                                                                                                                            NORMALIZADO                   20170817                                                                                                    FUENTE: XYGO 20170817 NORM INA CAMBIO LLAVE                                                                                                                                                                                                                    MPARRA7                                                                                                                                                                                                                                                                                                
0072691776337169PORTUGAL                     0072691776                                   N1         PORTUGAL                                          169                                           CHIGUAYANTE                   337       337       S/I                                                         0000000008BECO                          INA                                                                                                                                                                                                               CHIGUAYANTE_99                                                                                                                                                                                          NORMALIZADO                   20170817                                                                                                    SISTEMA     06/06/2012  FUENTE: BECO  D. FUENTE: XYGO 20170817 NORM                                                                                                                                                                                            MPARRA7                                                                                                                                                                                                                                                                                                
00726969050671429DIEGO DE ALMAGRO            0072696905                                   N1         DIEGO DE ALMAGRO                                  1429                                          VINA DEL MAR                  067       067       S/I                                                         0000000005BECO                          INA                                                                                                                                                                                                               VINA_DEL_MAR_99                                                                                                                                                                                         NORMALIZADO                   20170817                                                                                                    FUENTE: XYGO 20170817 NORM                                                                                                                                                                                                                                     MPARRA7                                                                                                                                                                                                                                                                                                
007312438730132MEULIN                        0073124387                                   N1         MEULIN                                            32                                            ANCUD                         301       301       S/I                                                         0000000010BECO                          INA                                                                                                                                                                                                               ANCUD_99                                                                                                                                                                                                NORMALIZADO                   20170817                                                                                                    SISTEMA     09/07/2011  FUENTE: BECO FUENTE: XYGO 20170817 NORM                                                                                                                                                                                                MPARRA7                                                                                                                                                                                                                                                                                                
00733728600165371PASAJECALBUCO               0073372860                                   N1         PASAJE CALBUCO                                    5371                                          ANTOFAGASTA                   016       016       S/I                                                         0000000002BECO                          INA                                                                                                                                                                                                               ANTOFAGASTA_99                                                                                                                                                                                          NORMALIZADO                   20170817                                                                                                    SISTEMA     21/03/2013  FUENTE: BECO  D. FUENTE: XYGO 20170817 NORM INA CAMBIO LLAVE                                                                                                                                                                           MPARRA7                                                                                                                                                                                                                                                                                                
00738649090211700PEDROPORTEDECASAGNATE       0073864909                                   N1         PEDRO PORTE DE CASAGNATE                          1700                                          DIEGO DE ALMAGRO              021       021       S/I                                                         0000000003BECO                          INA                                                                                                                                                                                                               D_DE_ALMAGRO_99                                                                                                                                                                                         NORMALIZADO                   20170817                                                                                                    SISTEMA     14/02/2013  FUENTE: BECO FUENTE: XYGO 20170817 NORM INA CAMBIO LLAVE                                                                                                                                                                               MPARRA7                                                                                                                                                                                                                                                                                                
0074580505025925PASAJE1SUR                   0074580505                                   N1         PASAJE 1 SUR                                      925                                           VALLENAR                      025       025       S/I                                                         0000000003BECO                          INA                                                                                                                                                                                                               VALLENAR_99                                                                                                                                                                                             NORMALIZADO                   20170817                                                                                                    UCORNEJO    02/04/2014  FUENTE: BECO  D. FUENTE: XYGO 20170817 NORM INA CAMBIO LLAVE                                                                                                                                                                           MPARRA7                                                                                                                                                                                                                                                                                                
007495384022893LAS HERAS                     0074953840                                   N1         LAS HERAS                                         93                                            PENCO                         228       228       S/I                                                         0000000008BECO                          INA                                                                                                                                                                                                               PENCO_99                                                                                                                                                                                                NORMALIZADO                   20170817                                                                                                    SISTEMA     13/04/2013  FUENTE: BECO FUENTE: XYGO 20170817 NORM                                                                                                                                                                                                MPARRA7                                                                                                                                                                                                                                                                                                
00750245172911071VOLCAN APAGADO              0075024517                                   N1         VOLCAN APAGADO                                    1071                                          PUERTO MONTT                  291       291       S/I                                                         0000000010BECO                          INA                                                                                                                                                                                                               PTO_MONTT_99                                                                                                                                                                                            NORMALIZADO                   20170817                                                                                                    PADRE HURTADO FUENTE: XYGO 20170817 NORM                                                                                                                                                                                                                       MPARRA7                                                                                                                                                                                                                                                                                                
00755791280927533UNO SUR                     0075579128                                   N1         UNO SUR                                           7533                                                                        092       080       S/I                                                         0000000013BECO                          INA                                                                                                                                                                                                               PENALOLEN_99                                                                                                                                                                                            NORMALIZADO                   20170817                                                                                                    DVALEN50    17/07/2012 FUENTE: XYGO 20170817 NORM                                                                                                                                                                                                              MPARRA7                                                                                                                                                                                                                                                                                                
007627469K344544PASAJERAFAEL                 007627469K                                   N1         PASAJE RAFAEL                                     544                                           HUALPEN                       344       226       S/I                                                         0000000008BECO                          INA                                                                                                                                                                                                               HUALPEN_99                                                                                                                                                                                              NORMALIZADO                   20170817                                                                                                    MVASQU50    07/08/2014  FUENTE: BECO  D. FUENTE: XYGO 20170817 NORM INA CAMBIO LLAVE                                                                                                                                                                           MPARRA7                                                                                                                                                                                                                                                                                                
0076843848173411SUR                          0076843848                                   N1         11 SUR                                            4                                             TALCA                         173       173       S/I                                                         0000000007BECO                          INA                                                                                                                                                                                                               TALCA_99                                                                                                                                                                                                NORMALIZADO                   20170817                                                                                                    LSALAS50    02/12/2011  FUENTE: BECO  D. FUENTE: XYGO 20170817 NORM INA CAMBIO LLAVE                                                                                                                                                                           MPARRA7                                                                                                                                                                                                                                                                                                
0077915230020636AVENIDAANDRESBELLO           0077915230                                   N1         AVENIDA ANDRES BELLO                              636                 0                                                       020       020       S/I                                                         0000000003BECO                          INA                                                                                                                                                                                                               CHANARAL_99                                                                                                                                                                                             NORMALIZADO                   20170817                                                                                                    SISTEMA     08/03/2012 FUENTE: XYGO 20170817 NORM INA CAMBIO LLAVE                                                                                                                                                                                             MPARRA7                                                                                                                                                                                                                                                                                                
007929795K180371PINTO                        007929795K                                   N1         PINTO                                             371                                           CONSTITUCION                  180       180       S/I                                                         0000000007BECO                          INA                                                                                                                                                                                                               CONSTITUCION_99                                                                                                                                                                                         NORMALIZADO                   20170817                                                                                                    SISTEMA     17/08/2011  FUENTE: BECO FUENTE: XYGO 20170817 NORM                                                                                                                                                                                                MPARRA7                                                                                                                                                                                                                                                                                                
0080325037300963DOÑAJAVENIDAIERACARRERA     0080325037                                   N1         DOÑA JAVENIDAIERA CARRERA                        963                                           CASTRO                        300       300       S/I                                                         0000000010BECO                          INA                                                                                                                                                                                                               CASTRO_99                                                                                                                                                                                               NORMALIZADO                   20170817                                                                                                    ISOTO50     12/03/2014  FUENTE: BECO FUENTE: XYGO 20170817 NORM INA CAMBIO LLAVE                                                                                                                                                                               MPARRA7                                                                                                                                                                                                                                                                                                
00805831682291133AVENIDALATORRE              0080583168                                   N1         AVENIDA LATORRE                                   1133                                          TOME                          229       229       S/I                                                         0000000008BECO                          INA                                                                                                                                                                                                               TOME_99                                                                                                                                                                                                 NORMALIZADO                   20170817                                                                                                    PASO        17/05/2013  FUENTE: BECO FUENTE: XYGO 20170817 NORM INA CAMBIO LLAVE                                                                                                                                                                               MPARRA7                                                                                                                                                                                                                                                                                                
0081002258021607ARTUROALESSANDRI             0081002258                                   N1         ARTURO ALESSANDRI                                 607                                           DIEGO DE ALMAGRO              021       021       S/I                                                         0000000003BECO                          INA                                                                                                                                                                                                               D_DE_ALMAGRO_99                                                                                                                                                                                         NORMALIZADO                   20170817                                                                                                    SISTEMA     12/11/2011  FUENTE: BECO FUENTE: XYGO 20170817 NORM INA CAMBIO LLAVE                                                                                                                                                                               MPARRA7                                                                                                                                                                                                                                                                                                
00820696313372778PASAJE TRECE                0082069631                                   N1         PASAJE TRECE                                      2778                                          CHIGUAYANTE                   337       337       S/I                                                         0000000008BECO                          INA                                                                                                                                                                                                               CHIGUAYANTE_99                                                                                                                                                                                          NORMALIZADO                   20170817                                                                                                    CASAS DEL VALLE ETAPA V  PLAZA DEL SOL FUENTE: XYGO 20170817 NORM                                                                                                                                                                                              MPARRA7                                                                                                                                                                                                                                                                                                
00827019153141788PANGUILEMU                  0082701915                                   N1         PANGUILEMU                                        1788                                          COYHAIQUE                     314       314       S/I                                                         0000000011BECO                          INA                                                                                                                                                                                                               COIHAIQUE_99                                                                                                                                                                                            NORMALIZADO                   20170817                                                                                                    VVILLA50    04/10/2012  FUENTE: BECO  D. FUENTE: XYGO 20170817 NORM INA CAMBIO LLAVE                                                                                                                                                                           MPARRA7                                                                                                                                                                                                                                                                                                
00837489823444459PASAJE DOS                  0083748982                                   N1         PASAJE DOS                                        4459                                          HUALPEN                       344       226       S/I                                                         0000000008BECO                          INA                                                                                                                                                                                                               HUALPEN_99                                                                                                                                                                                              NORMALIZADO                   20170817                                                                                                    SZAPAT50    10/12/2011  FUENTE: BECO  D. FUENTE: XYGO 20170817 NORM                                                                                                                                                                                            MPARRA7                                                                                                                                                                                                                                                                                                
00843366371737136SUR                         0084336637                                   N1         6 SUR                                             713                                           TALCA                         173       173       S/I                                                         0000000007BECO                          INA                                                                                                                                                                                                               TALCA_99                                                                                                                                                                                                NORMALIZADO                   20170817                                                                                                    SISTEMA     13/11/2009  FUENTE: BECO FUENTE: XYGO 20170817 NORM INA CAMBIO LLAVE                                                                                                                                                                               MPARRA7                                                                                                                                                                                                                                                                                                
008435362019044POBLBELLAVENIDAISTALOSRUILES  0084353620                                   N1         POBL BELLAVENIDAISTA LOS RUILES                   44                                            CAUQUENES                     190       190       S/I                                                         0000000007BECO                          INA                                                                                                                                                                                                               CAUQUENES_99                                                                                                                                                                                            NORMALIZADO                   20170817                                                                                                    SISTEMA     10/03/2012  FUENTE: BECO FUENTE: XYGO 20170817 NORM INA CAMBIO LLAVE                                                                                                                                                                               MPARRA7                                                                                                                                                                                                                                                                                                
0084491063027113VICENTE HUIDOBRO             0084491063                                   N1         VICENTE HUIDOBRO                                  113                                           HUASCO                        027       027       S/I                                                         0000000003BECO                          INA                                                                                                                                                                                                               HUASCO_99                                                                                                                                                                                               NORMALIZADO                   20170817                                                                                                    JGALLA50    10/02/2015  FUENTE: BECO  D. FUENTE: XYGO 20170817 NORM                                                                                                                                                                                            MPARRA7                                                                                                                                                                                                                                                                                                
00848969420222537SALECIANOS                  0084896942                                   N1         SALECIANOS                                        2537                                          COPIAPO                       022       022       S/I                                                         0000000003BECO                          INA                                                                                                                                                                                                               COPIAPO_99                                                                                                                                                                                              NORMALIZADO                   20170817                                                                                                    SISTEMA     06/02/2013  FUENTE: BECO  D. FUENTE: XYGO 20170817 NORM INA CAMBIO LLAVE                                                                                                                                                                           MPARRA7                                                                                                                                                                                                                                                                                                
00861869180168519INGENIEROHYATT              0086186918                                   N1         INGENIERO HYATT                                   8519                                          ANTOFAGASTA                   016       016       S/I                                                         0000000002BECO                          INA                                                                                                                                                                                                               ANTOFAGASTA_99                                                                                                                                                                                          NORMALIZADO                   20170817                                                                                                    SISTEMA     08/05/2012  FUENTE: BECO  D. FUENTE: XYGO 20170817 NORM INA CAMBIO LLAVE                                                                                                                                                                           MPARRA7                                                                                                                                                                                                                                                                                                
0088166779194508CARRERA                      0088166779                                   N1         CARRERA                                           508                                           SAN CARLOS                    194       194       S/I                                                         0000000008BECO                          INA                                                                                                                                                                                                               SAN_CARLOS_99                                                                                                                                                                                           NORMALIZADO                   20170817                                                                                                    SISTEMA     11/12/2010  FUENTE: BECO FUENTE: XYGO 20170817 NORM INA CAMBIO LLAVE                                                                                                                                                                               MPARRA7                                                                                                                                                                                                                                                                                                
00887328390222510SALITRERALIMENITA           0088732839                                   N1         SALITRERA LIMENITA                                2510                                          COPIAPO                       022       022       S/I                                                         0000000003BECO                          INA                                                                                                                                                                                                               COPIAPO_99                                                                                                                                                                                              NORMALIZADO                   20170817                                                                                                    SISTEMA     13/08/2013  FUENTE: BECO  D. FUENTE: XYGO 20170817 NORM INA CAMBIO LLAVE                                                                                                                                                                           MPARRA7                                                                                                                                                                                                                                                                                                
0088757513314485LOS MANIOS                   0088757513                                   N1         LOS MANIOS                                        485                                           COYHAIQUE                     314       314       S/I                                                         0000000011BECO                          INA                                                                                                                                                                                                               COIHAIQUE_99                                                                                                                                                                                            NORMALIZADO                   20170817                                                                                                    SISTEMA     13/10/2012  FUENTE: BECO  D. FUENTE: XYGO 20170817 NORM                                                                                                                                                                                            MPARRA7                                                                                                                                                                                                                                                                                                
0089399769314221PASAJECISNES                 0089399769                                   N1         PASAJE CISNES                                     221                                           COYHAIQUE                     314       314       S/I                                                         0000000011BECO                          INA                                                                                                                                                                                                               COIHAIQUE_99                                                                                                                                                                                            NORMALIZADO                   20170817                                                                                                    SISTEMA     25/02/2012  FUENTE: BECO  D. FUENTE: XYGO 20170817 NORM INA CAMBIO LLAVE                                                                                                                                                                           MPARRA7                                                                                                                                                                                                                                                                                                
00897658113376735PASAJE CINCO                0089765811                                   N1         PASAJE CINCO                                      6735                                          CHIGUAYANTE                   337       337       S/I                                                         0000000008BECO                          INA                                                                                                                                                                                                               CHIGUAYANTE_99                                                                                                                                                                                          NORMALIZADO                   20170817                                                                                                    JGALLA50    27/12/2013  FUENTE: BECO  D. FUENTE: XYGO 20170817 NORM                                                                                                                                                                                            MPARRA7                                                                                                                                                                                                                                                                                                
00902875400165245ABRAHAMLINCON               0090287540                                   N1         ABRAHAM LINCON                                    5245                                          ANTOFAGASTA                   016       016       S/I                                                         0000000002BECO                          INA                                                                                                                                                                                                               ANTOFAGASTA_99                                                                                                                                                                                          NORMALIZADO                   20170817                                                                                                    POBLACION CORVALLIS  MVASQU50    04/11/2 FUENTE: XYGO 20170817 NORM INA CAMBIO LLAVE                                                                                                                                                                           MPARRA7                                                                                                                                                                                                                                                                                                
00906462570251005PROVIDENCIA                 0090646257                                   N1         PROVIDENCIA                                       1005                                          VALLENAR                      025       025       S/I                                                         0000000003BECO                          INA                                                                                                                                                                                                               VALLENAR_99                                                                                                                                                                                             NORMALIZADO                   20170817                                                                                                    CARRERA FUENTE: XYGO 20170817 NORM                                                                                                                                                                                                                             MPARRA7                                                                                                                                                                                                                                                                                                
00908284790053156AVENIDA LA TIRANA           0090828479                                   N1         AVENIDA LA TIRANA                                 3156                                          IQUIQUE                       005       001       S/I                                                         0000000015BECO                          INA                                                                                                                                                                                                               IQUIQUE_99                                                                                                                                                                                              NORMALIZADO                   20170817                                                                                                    JLEYTON5    25/07/2014  FUENTE: BECO  D. FUENTE: XYGO 20170817 NORM                                                                                                                                                                                            MPARRA7                                                                                                                                                                                                                                                                                                
00911445060053772PEDROPRADO                  0091144506                                   N1         PEDRO PRADO                                       3772                                                                        005       001       S/I                                                         0000000015BECO                          INA                                                                                                                                                                                                               IQUIQUE_99                                                                                                                                                                                              NORMALIZADO                   20170817                                                                                                    IDIVON50    01/08/2003 FUENTE: XYGO 20170817 NORM INA CAMBIO LLAVE                                                                                                                                                                                             MPARRA7                                                                                                                                                                                                                                                                                                
0092228770085400RICARDOLYON                  0092228770                                   N1         RICARDO LYON                                      400                                           PROVIDENCIA                   085       080       S/I                                                         0000000013BECO                          INA                                                                                                                                                                                                               PROVIDENCIA_99                                                                                                                                                                                          NORMALIZADO                   20170817                                                                                                    SISTEMA     13/11/2012  FUENTE: BECO  D. FUENTE: XYGO 20170817 NORM INA CAMBIO LLAVE                                                                                                                                                                           MPARRA7                                                                                                                                                                                                                                                                                                
0092330877314101GENERAL PARRA                0092330877                                   N2         GENERAL PARRA                                     101                                           COYHAIQUE                     314       314       S/I                                                         0000000011BECO                          INA                                                                                                                                                                                                               COIHAIQUE_99                                                                                                                                                                                            NORMALIZADO                   20170817                                                                                                    SISTEMA     26/11/2011  FUENTE: BECO FUENTE: XYGO 20170817 NORM                                                                                                                                                                                                MPARRA7                                                                                                                                                                                                                                                                                                
009238831K314453PASAJERIOOSCURO              009238831K                                   N1         PASAJE RIO OSCURO                                 453                                           COYHAIQUE                     314       314       S/I                                                         0000000011BECO                          INA                                                                                                                                                                                                               COIHAIQUE_99                                                                                                                                                                                            NORMALIZADO                   20170817                                                                                                    MMEDIN50    06/02/2014  FUENTE: BECO  D. FUENTE: XYGO 20170817 NORM INA CAMBIO LLAVE                                                                                                                                                                           MPARRA7                                                                                                                                                                                                                                                                                                
009282879422734JUANCHAVENIDAEZ               0092828794                                   N1         JUAN CHAVENIDAEZ                                  34                                            TALCAHUANO                    227       227       S/I                                                         0000000008BECO                          INA                                                                                                                                                                                                               TALCAHUANO_99                                                                                                                                                                                           NORMALIZADO                   20170817                                                                                                    SISTEMA     31/03/2012  FUENTE: BECO FUENTE: XYGO 20170817 NORM INA CAMBIO LLAVE                                                                                                                                                                               MPARRA7                                                                                                                                                                                                                                                                                                
00932116690531945PAJEBENJAMINDONOSO          0093211669                                   N1         PAJE BENJAMIN DONOSO                              1945                                          SAN FELIPE                    053       053       S/I                                                         0000000005BECO                          INA                                                                                                                                                                                                               SAN_FELIPE_99                                                                                                                                                                                           NORMALIZADO                   20170817                                                                                                    SISTEMA     11/11/2006  FUENTE: BECO  D. FUENTE: XYGO 20170817 NORM INA CAMBIO LLAVE                                                                                                                                                                           MPARRA7                                                                                                                                                                                                                                                                                                
0094063914094466MICHELSON                    0094063914                                   N1         MICHELSON                                         466                                                                         094       080       S/I                                                         0000000013BECO                          INA                                                                                                                                                                                                               SAN_JOAQUIN_99                                                                                                                                                                                          NORMALIZADO                   20170817                                                                                                    DVALEN50    05/11/2011 FUENTE: XYGO 20170817 NORM                                                                                                                                                                                                              MPARRA7                                                                                                                                                                                                                                                                                                
00955456100270PADREMANOLO138                 0095545610                                   N1         PADRE MANOLO 138                                  0                                             HUASCO                        027       027       S/I                                                         0000000003BECO                          INA                                                                                                                                                                                                               HUASCO_99                                                                                                                                                                                               NORMALIZADO                   20170817                                                                                                    SISTEMA     16/03/2013  FUENTE: BECO FUENTE: XYGO 20170817 NORM INA CAMBIO LLAVE                                                                                                                                                                               MPARRA7                                                                                                                                                                                                                                                                                                
009608207K0927391AVENIDA JOSE ARRIETA        009608207K                                   N1         AVENIDA JOSE ARRIETA                              7391                                                                        092       080       S/I                                                         0000000013BECO                          INA                                                                                                                                                                                                               PENALOLEN_99                                                                                                                                                                                            NORMALIZADO                   20170817                                                                                                    PIGLESIA    13/05/2013 FUENTE: XYGO 20170817 NORM                                                                                                                                                                                                              MPARRA7                                                                                                                                                                                                                                                                                                
009654880K2261741AVENIDAPAICAVENIDAI         009654880K                                   N1         AVENIDA PAICAVENIDAI                              1741                                          CONCEPCION                    226       226       S/I                                                         0000000008BECO                          INA                                                                                                                                                                                                               CONCEPCION_99                                                                                                                                                                                           NORMALIZADO                   20170817                                                                                                    SISTEMA     21/05/2011  FUENTE: BECO FUENTE: XYGO 20170817 NORM INA CAMBIO LLAVE                                                                                                                                                                               MPARRA7                                                                                                                                                                                                                                                                                                
0098006427023785ISLA NUEVA                   0098006427                                   N1         ISLA NUEVA                                        785                                           CALDERA                       023       023       S/I                                                         0000000003BECO                          INA                                                                                                                                                                                                               CALDERA_99                                                                                                                                                                                              NORMALIZADO                   20170817                                                                                                    RJARA50     03/12/2013  FUENTE: BECO  D. FUENTE: XYGO 20170817 NORM                                                                                                                                                                                            MPARRA7                                                                                                                                                                                                                                                                                                
0098121188025440PASAJE LA FAUNA              0098121188                                   N1         PASAJE LA FAUNA                                   440                                           VALLENAR                      025       025       S/I                                                         0000000003BECO                          INA                                                                                                                                                                                                               VALLENAR_99                                                                                                                                                                                             NORMALIZADO                   20170817                                                                                                    SISTEMA     14/07/2012  FUENTE: BECO FUENTE: XYGO 20170817 NORM                                                                                                                                                                                                MPARRA7                                                                                                                                                                                                                                                                                                
009815518K3441249AVENIDA LAS GOLONDRINAS     009815518K                                   N1         AVENIDA LAS GOLONDRINAS                           1249                                          HUALPEN                       344       226       S/I                                                         0000000008BECO                          INA                                                                                                                                                                                                               HUALPEN_99                                                                                                                                                                                              NORMALIZADO                   20170817                                                                                                    ECACER50    24/05/2011  FUENTE: BECO  PO FUENTE: XYGO 20170817 NORM                                                                                                                                                                                            MPARRA7                                                                                                                                                                                                                                                                                                
00983086870532190LOS PENSAMIENTOS            0098308687                                   N1         LOS PENSAMIENTOS                                  2190                                          SAN FELIPE                    053       053       S/I                                                         0000000005BECO                          INA                                                                                                                                                                                                               SAN_FELIPE_99                                                                                                                                                                                           NORMALIZADO                   20170817                                                                                                    MMUNO2      14/03/2011  FUENTE: BECO  D. FUENTE: XYGO 20170817 NORM                                                                                                                                                                                            MPARRA7                                                                                                                                                                                                                                                                                                
0098388982090415DETECTIVE VICENTE BOURQUET   0098388982                                   N1         DETECTIVE VICENTE BOURQUET                        415                                           LA REINA                      090       080       S/I                                                         0000000013BECO                          INA                                                                                                                                                                                                               LA_REINA_99                                                                                                                                                                                             NORMALIZADO                   20170817                                                                                                    SISTEMA     21/06/2013  FUENTE: BECO FUENTE: XYGO 20170817 NORM                                                                                                                                                                                                MPARRA7                                                                                                                                                                                                                                                                                                
0099355743337895MANUELRODRIGUEZ              0099355743                                   N1         MANUEL RODRIGUEZ                                  895                                           CHIGUAYANTE                   337       337       S/I                                                         0000000008BECO                          INA                                                                                                                                                                                                               CHIGUAYANTE_99                                                                                                                                                                                          NORMALIZADO                   20170817                                                                                                    ESQUINA SANTA ELENA  SISTEMA     11/06/2 FUENTE: XYGO 20170817 NORM INA CAMBIO LLAVE                                                                                                                                                                           MPARRA7                                                                                                                                                                                                                                                                                                
00995310450167358JUANBRAVENIDAO              0099531045                                   N1         JUAN BRAVENIDAO                                   7358                                          ANTOFAGASTA                   016       016       S/I                                                         0000000002BECO                          INA                                                                                                                                                                                                               ANTOFAGASTA_99                                                                                                                                                                                          NORMALIZADO                   20170817                                                                                                    SISTEMA     11/05/2013  FUENTE: BECO  D. FUENTE: XYGO 20170817 NORM INA CAMBIO LLAVE                                                                                                                                                                           MPARRA7                                                                                                                                                                                                                                                                                                
0100237520300577NUEVA CUCAO                  0100237520                                   N1         NUEVA CUCAO                                       577                                           CASTRO                        300       300       S/I                                                         0000000010BECO                          INA                                                                                                                                                                                                               CASTRO_99                                                                                                                                                                                               NORMALIZADO                   20170817                                                                                                    MVASQU50    01/08/2013  FUENTE: BECO FUENTE: XYGO 20170817 NORM                                                                                                                                                                                                MPARRA7                                                                                                                                                                                                                                                                                                
01021561103376775BERNARDOOHIGGINS            0102156110                                   N1         BERNARDO OHIGGINS                                 6775                                          CHIGUAYANTE                   337       337       S/I                                                         0000000008BECO                          INA                                                                                                                                                                                                               CHIGUAYANTE_99                                                                                                                                                                                          NORMALIZADO                   20170817                                                                                                    FUENTE: XYGO 20170817 NORM INA CAMBIO LLAVE                                                                                                                                                                                                                    MPARRA7                                                                                                                                                                                                                                                                                                
010235846519031PASAJE LOS CIPRESES           0102358465                                   N1         PASAJE LOS CIPRESES                               31                                            CAUQUENES                     190       190       S/I                                                         0000000007BECO                          INA                                                                                                                                                                                                               CAUQUENES_99                                                                                                                                                                                            NORMALIZADO                   20170817                                                                                                    SISTEMA     08/06/2013  FUENTE: BECO  D. FUENTE: XYGO 20170817 NORM                                                                                                                                                                                            MPARRA7                                                                                                                                                                                                                                                                                                
01025576972921079PASAJECHILE                 0102557697                                   N1         PASAJE CHILE                                      1079                                          PUERTO VARAS                  292       292       S/I                                                         0000000010BECO                          INA                                                                                                                                                                                                               PTO_VARAS_99                                                                                                                                                                                            NORMALIZADO                   20170817                                                                                                    SISTEMA     10/11/2012  FUENTE: BECO  D. FUENTE: XYGO 20170817 NORM INA CAMBIO LLAVE                                                                                                                                                                           MPARRA7                                                                                                                                                                                                                                                                                                
0103776716020897CARLOS CONDELL               0103776716                                   N1         CARLOS CONDELL                                    897                                           CHANARAL                      020       020       S/I                                                         0000000003BECO                          INA                                                                                                                                                                                                               CHANARAL_99                                                                                                                                                                                             NORMALIZADO                   20170817                                                                                                    JALVAR50    30/09/2011  FUENTE: BECO  D. FUENTE: XYGO 20170817 NORM                                                                                                                                                                                            MPARRA7                                                                                                                                                                                                                                                                                                
01038388003141079BARROS ARANA                0103838800                                   N1         BARROS ARANA                                      1079                                          COYHAIQUE                     314       314       S/I                                                         0000000011BECO                          INA                                                                                                                                                                                                               COIHAIQUE_99                                                                                                                                                                                            NORMALIZADO                   20170817                                                                                                    MMEDIN50    29/07/2013  FUENTE: BECO FUENTE: XYGO 20170817 NORM                                                                                                                                                                                                MPARRA7                                                                                                                                                                                                                                                                                                
01038598400013999PASAJE  MARCOLETA           0103859840                                   N1         PASAJE  MARCOLETA                                 3999                                          ARICA                         001       001       S/I                                                         0000000015BECO                          INA                                                                                                                                                                                                               ARICA_99                                                                                                                                                                                                NORMALIZADO                   20170817                                                                                                    20NPINO     28/04/2011  FUENTE: BECO  D. FUENTE: XYGO 20170817 NORM                                                                                                                                                                                            MPARRA7                                                                                                                                                                                                                                                                                                
